:1000000000800020750300005D0300005F03000016
:1000100061030000630300006503000000000000AE
:100020000000000000000000000000006703000066
:1000300069030000000000006B0300006D03000076
:100040006F0300006F0300006F0300006F030000E8
:100050006F030000000000006F03000000000000BC
:100060006F0300006F0300006F0300006F030000C8
:100070006F0300006F0300006F0300006F030000B8
:100080006F0300006F0300006F0300006F030000A8
:100090006F0300006F0300006F0300006F03000098
:1000A0006F0300006F0300006F03000000000000FA
:1000B0000000000000000000000000000000000040
:1000C0000000000000000000000000000000000030
:1000D0000000000000000000000000006F030000AE
:1000E0000000000000000000000000000000000010
:1000F0000000000000000000000000000000000000
:1001000000000000000000000000000000000000EF
:1001100000000000000000000000000000000000DF
:1001200000000000000000000000000000000000CF
:1001300000000000000000000000000000000000BF
:1001400000000000000000000000000000000000AF
:10015000000000000000000000000000000000009F
:10016000000000000000000000000000000000008F
:10017000000000000000000000000000000000007F
:10018000000000000000000000000000000000006F
:10019000000000000000000000000000000000005F
:1001A000000000000000000000000000000000004F
:1001B000000000000000000000000000000000003F
:1001C000000000000000000000000000000000002F
:1001D000000000000000000000000000000000001F
:1001E000000000000000000000000000000000000F
:1001F00000000000000000000000000000000000FF
:10020000354936480A1A02D0072291438D463449AF
:1002100034480A1A06D00722914381F30988022242
:1002200082F3148830483149314A00F044F83148AB
:100230003149324A00F03FF831483249324A00F041
:100240003AF832483249334A00F035F832483349F7
:10025000334A00F030F833483349344A00F02BF881
:1002600033483449344A00F026F8344834490022EF
:1002700000F02CF833483449002200F027F83348C6
:100280003349091A082902DB002202604160314A21
:1002900090471F481F49884205D00268043003B4C4
:1002A000904703BCF7E700208646EC46002000217B
:1002B000294A9047FEE7884207D0521A05D00378B2
:1002C00001300B700131013AF9D17047884202D0F8
:1002D00002700130FAE770470080002000700020B3
:1002E0000080002000800020500600000000002058
:1002F00004000020BC030000BC0300003406000022
:10030000500600000000002000000020340600001D
:1003100034060000340600003406000034060000F5
:1003200034060000340600003406000050060000C9
:1003300054060000040000200400002004000020F7
:10034000040000200400002004000020040000201D
:10035000041000208B03000059040000FEE7FEE7B4
:10036000FEE7FEE7FEE7FEE7FEE7FEE7FEE7FEE765
:1003700000F002B8FFF7FCBF0B484FF007018843BD
:1003800085460A488047FFF73BBF094809490A4AA2
:10039000884207D0521A05D0037801300B70013122
:1003A000013AF9D17047000000800020B504000038
:0C03B000340600000000002000000020C7
:1003BC00044B1A5C012393404FF0A042C2F808355D
:1003CC00704700BF3406000008B50020FFF7F0FFAF
:1003DC000120FFF7EDFF0220FFF7EAFFBDE8084020
:1003EC000320FFF7E5BF0000074A4FF0A041105C67
:1003FC00D1F804350122824022EA03001340C1F8EF
:10040C000805C1F80C35704734060000C20708B562
:10041C0001460CD54FF0A0430322C3F83427C3F890
:10042C003827C3F83C27C3F84027FFF7CDFF8B07CD
:10043C000AD54FF0A0430C22C3F82C27C3F8302761
:10044C00C3F86027C3F8642708BD000070B501200D
:10045C00094DFFF7DBFF45F0010500242046FFF7AF
:10046C00C3FF4FF4FA764FF47A40A847013EFAD115
:10047C000134042CF2D1F0E7400600004FF0805319
:10048C00D3F830010D2804D0A0F110035842584184
:10049C007047012070470000024AD2F80034002B4C
:1004AC00FBD0704700E0014010B5FFF7E7FF40B10B
:1004BC004FF080430022C3F80C21C3F81021C3F87D
:1004CC003825FFF7DBFF002846D04FF080524E4B0B
:1004DC00D2F80414C3F82015D2F80814C3F8241564
:1004EC00D2F80C14C3F82815D2F81014C3F82C1534
:1004FC00D2F81414C3F83015D2F81814C3F8341504
:10050C00D2F81C14C3F84015D2F82014C3F84415C3
:10051C00D2F82414C3F84815D2F82814C3F84C1593
:10052C00D2F82C14C3F85015D2F83014C3F8541563
:10053C00D2F83414C3F86015D2F83814C3F8641523
:10054C00D2F83C14C3F86815D2F84014C3F86C15F3
:10055C00D2F84424C3F87025FFF790FF48B14FF050
:10056C008043D3F80024D20744BF6FF00102C3F8D4
:10057C0000244FF08053D3E94C230D2A39D1022BA0
:10058C0002D8224AD35C3BB14FF01023D3F8082297
:10059C004FF08043C3F858254FF01023D3F80022B6
:1005AC00002A03DBD3F80432002B28DA1849012384
:1005BC004FF01020C1F804351224FFF76DFFC0F87E
:1005CC000042FFF769FFC0F80442FFF765FF002304
:1005DC00C1F80435FFF760FFBFF34F8F0D490E4B89
:1005EC00CA6802F4E0621343CB60BFF34F8F00BFC5
:1005FC00FDE7102AD0D1032BC6D8084AC2E7084B16
:10060C00084A1A6010BD00BF00C00040460600003A
:10061C0000E0014000ED00E00400FA05490600008E
:08062C00000000200090D00343
:100634000D0E0F1000000000000000000338FDD86C
:0C064400704700000100000001000000F1
:040650000090D00343
:040000030000037581
:00000001FF
